S00B0000416C6C2E7372656300
S11300000C942A000C9447000C9447000C9447006D
S11300100C9447000C9447000C9447000C94470040
S11300200C9447000C9447000C9447000C94470030
S11300300C9447000C9447000C9447000C94470020
S11300400C9447000C9447000C9447000C94470010
S11300500C94470011241FBECFE5D8E0DEBFCDBF0E
S113006010E0A0E6B0E0E2E4F4E002C005900D92F6
S1130070A238B107D9F720E0A2E8B0E001C01D9290
S1130080A838B207E1F70E9411010C941F020C94E6
S1130090000081B3806481BB82B38F7B82BB87E81D
S11300A093E10197F1F700C0000082B3806482BB42
S11300B0089581B38F7B81BB8699FECF869BFECF4B
S11300C08699FECF089520E018C0869BFECF8AE073
S11300D08A95F1F7869B09C08091820090E0880F91
S11300E0991F81608093820005C080918200880FEF
S11300F0809382008699FECF2F5F283030F3809161
S11301008200089582B3806182BB0000000082B344
S11301108F7E82BB089517BA82B3886082BB82B394
S11301208B7F82BB02C00E948200C799FCCF8FEFF5
S113013087BB0895CF93C82F0E948B00C8BB82B39E
S1130140837F82BB000082B38F7E82BB8DEE92E000
S11301500197F1F700C000000E94820018BACF9105
S11301600895CF93C82F0E948B00C8BB82B3877FAA
S113017082BB82B3846082BB0E94820018BACF9192
S11301800895CF93DF93EC0103C021960E94B10040
S113019088818111FACFDF91CF91089598B39F7030
S11301A0282F207F922B98BB98B3946098BB98B368
S11301B0906198BB000098B39F7E98BB31E23A955A
S11301C0F1F7000028B330E1839FC0011124922F7E
S11301D09F70892B88BB88B3806188BB000088B37B
S11301E08F7E88BB83EF91E00197F1F700C0000098
S11301F00895CF93DF9300D0CDB7DEB790E899830D
S113020090EC9A83E1E0F0E0EC0FFD1FE60FF11DA6
S11302109081890F0E949A000F900F90DF91CF91E7
S11302200895CF93DF9300D000D01F92CDB7DEB7EF
S113023081B38C6181BB85EA9EE00197F1F700C030
S1130240000081E00E949A008BE791E00197F1F7AA
S113025000C0000088E30E949A009CE09A95F1F7A0
S113026000008CE00E949A0080E690E00E94C100A9
S113027080EC0E949A008EE690E00E94C1002FE379
S11302808DE093E0215080409040E1F700C00000F1
S113029081E00E949A0060E080E00E94F9000E94E0
S11302A049000E9459000E946300809386000E94C6
S11302B06300809383000E946300809385000E9402
S11302C06300809387000E94630080938400E09120
S11302D08600F0E0909183009F01290F311D9091D9
S11302E08500290F311D90918700290F311D482F5A
S11302F050E02417350749F060E080E00E94F900DF
S113030084E790E00E94C1005EC04AE0BE016F5FD6
S11303107F4FCF010E94EA0160E080E00E94F90073
S1130320CE0101960E94C1008AE790E00E94C100BC
S1130330809183004AE0BE016F5F7F4F90E00E948E
S1130340EA01CE0101960E94C1008CE790E00E9470
S1130350C100809185004AE0BE016F5F7F4F90E04D
S11303600E94EA0160E088E00E94F900CE01019653
S11303700E94C1008AE790E00E94C100809187003A
S11303804AE0BE016F5F7F4F90E00E94EA01CE0118
S113039001960E94C1008FED0E94CE008EE790E08E
S11303A00E94C100809184004AE0BE016F5F7F4FCC
S11303B090E00E94EA01CE0101960E94C1008FE7FD
S11303C090E00E94C10083EC99E00197F1F700C02E
S11303D0000065CFBB274A3031F4992322F4BDE2F3
S11303E0909581959F4F0C94F601BB27FB015527EF
S11303F0AA27880F991FAA1FA41710F0A41B83957E
S11304005051B9F7A05DAA3308F0A95DA1930097F4
S113041079F7B111B1931192CB010C940F02DC0165
S1130420FC01672F71917723E1F7329704C07C9127
S11304306D9370836291AE17BF07C8F30895F89463
S1050440FFCFE8
S11304422020202050726F6A6563742078006865EA
S11304526C6C6F004572726F72002E00250043208F
S1050462000094
S9030000FC
